:080000000C942A000C9400008E
:100008000C9400000C9400000C9400000C94000068
:100018000C9400000C9400000C9400000C94000058
:100028000C9400000C9400000C9400000C94000048
:100038000C9400000C9400000C9400000C94000038
:100048000C9400000C9400000C940000F894EE2727
:10005800ECBBF1E0FBBFEBBFE5BF8DE0A2E0BB2747
:10006800ED938A95E9F780E098E0A0E6ED93019793
:10007800E9F7EFE5EDBFE8E0EEBFC0E6D2E00C94AB
:100088004500E0E0EABBEFEFEBBBE4BBE0E0E5BB3B
:10009800C89908C009D0CA9B07D0CB9B05D0CC9B78
:1000A80003D0F8CFF5CFFFCFE0E0E5BBE0E0F0E02C
:1000B80060E070E0DF010E946A00E1E0E5BBE0E09B
:1000C800F0E060E070E0DF010C946A00109639F00F
:1000D8008AEF90E00197F1F7A8951197C9F708956D
:00000001FF
