:100000000C942A000C9400000C9400000C94000046
:100010000C9400000C9400000C9400000C94000060
:100020000C9400000C9400000C9400000C94000050
:100030000C9400000C9400000C9400000C94000040
:100040000C9400000C9400000C9400000C94000030
:100050000C940000F894EE27ECBBF1E0FBBFEBBF83
:10006000E5BF8DE0A2E0BB27ED938A95E9F780E03C
:1000700098E0A0E6ED930197E9F7EFE5EDBFE8E042
:10008000EEBFC0E6D2E00C9445002897EAE0EC838E
:10009000E7EDED83E3E2EE83ECE3EF83E0E0EABB40
:1000A000EFEFEBBBE4BBE0E0E5BB42D0EC83FD83CC
:1000B0006E837F83C89918C0E0E03FD0E1E03DD077
:1000C00037D00E940901EC81FD816E817F810E9401
:1000D00004010E94130139F00E94FF00EC83FD83AC
:1000E0006E837F8301C0E8CFE5CFFFCF0E940E0172
:1000F000CA9905C0E0E0F0E060E070E417C0CB9979
:1001000005C0E0E0F0E060E87FE310C0CC9905C0F6
:10011000E0E0F0E060E07FE309C0C99905C0E0E0FD
:10012000F0E060EA70E402C00E94FF0024960895A7
:10013000AC81BD818E819F81D9CFE5BBEC81FD81F2
:100140006E817F810E94BA00DF010C94A700109697
:1001500039F08AEF90E00197F1F7A8951197C9F768
:10016000089550E8072E0522660F771F7527550F53
:1001700067950895689401C0E8945F93F2DF703842
:1001800018F07F3F08F42DC056E1571BAAF4519593
:1001900058300EF4593030F0EFEFFFEF6FEF7FE79C
:1001A00077F91AC077275523B9F0EE0FFF1F661FA6
:1001B000771F5A95D1F710C07727583028F0EF2FC6
:1001C000F62F672F5850F9CF552331F07695679564
:1001D000F795E7955A95D1F700200AF408D05F917A
:1001E0000895EE27FF27662777275F910895F095FA
:1001F00060957095E195FF4F6F4F7F4F0895E881AF
:10020000F9816A817B810895A881B9818A819B8166
:100210000895E883F9836A837B8308959A938A9388
:10022000BA93AA930895EA17FB0768077907089518
:00000001FF
