:020000000C945E
:100002002A000C9400000C9400000C9400000C9444
:1000120000000C9400000C9400000C9400000C945E
:1000220000000C9400000C9400000C9400000C944E
:1000320000000C9400000C9400000C9400000C943E
:1000420000000C9400000C9400000C9400000C942E
:100052000000F894EE27ECBBF1E0FBBFEBBFE5BF7D
:100062008DE0A2E0BB27ED938A95E9F780E098E066
:10007200A0E6ED930197E9F7EFE5EDBFE8E0EEBF0B
:10008200C0E6D2E00C9445002497EAE0E883E7ED6D
:10009200E983E3E2EA83ECE3EB83E0E0EABBEFEF40
:1000A200EBBBE4BBE0E0E5BBC8990AC0E0E02CD0C2
:1000B200E1E02AD00E94EA0005D00E94EF00F6CFCC
:1000C200F3CFFFCF0E94F400CA9905C0EFE6F2E138
:1000D20063E87BE317C0CB9905C0EFE6F2E163E08A
:1000E2007BE310C0CC9905C0EFE6F2E163E87AE366
:1000F20009C0C99905C0EAE0F7ED63E27CE302C0FA
:100102000E94E50024960895E5BB0E94E5000E9446
:10011200A000DF010C948D00109639F08AEF90E078
:100122000197F1F7A8951197C9F7089550E8072E9E
:100132000522660F771F7527550F679508956894F6
:1001420001C0E8945F93F2DF703818F07F3F08F443
:100152002DC056E1571BAAF4519558300EF4593070
:1001620030F0EFEFFFEF6FEF7FE777F91AC07727F5
:100172005523B9F0EE0FFF1F661F771F5A95D1F76F
:1001820010C07727583028F0EF2FF62F672F5850DE
:10019200F9CF552331F076956795F795E7955A95FE
:1001A200D1F700200AF408D05F910895EE27FF27C7
:1001B200662777275F910895F09560957095E19590
:1001C200FF4F6F4F7F4F0895E881F9816A817B81EC
:1001D2000895A881B9818A819B810895E883F98372
:1001E2006A837B8308959A938A93BA93AA93089514
:00000001FF
